:020000040800F2
:1000000010BD002071020008B1020008B302000810
:10001000B7020008BB020008BF0200080000000091
:10002000000000000000000000000000C302000803
:10003000C5020008000000001B0200085D11000856
:100040008B0200088B0200088B0200088B0200085C
:100050008B0200088B0200088B0200088B0200084C
:100060008B0200088B0200088B0200088B0200083C
:100070008B0200088B0200088B0200088B0200082C
:100080008B0200088B0200088B0200088B0200081C
:100090008B0200088B0200088B0200088B0200080C
:1000A0008B0200088B0200088B0200088B020008FC
:1000B0008B0200088B0200088B0200088B020008EC
:1000C0008B0200088B0200088B0200088B020008DC
:1000D0008B020008C52600088B0200088B0200086E
:1000E0008B0200088B0200088B0200088B020008BC
:1000F0008B0200088B0200088B0200088B020008AC
:100100008B0200088B0200088B0200088B0200089B
:100110008B0200088B0200088B0200088B0200088B
:100120008B0200088B0200088B0200088B0200087B
:1001300000F002F800F03AF80AA090E8000C8244BF
:100140008344AAF10107DA4501D100F02FF8AFF29C
:10015000090EBAE80F0013F0010F18BFFB1A43F0A5
:10016000010318477426000094260000103A24BFAB
:1001700078C878C1FAD8520724BF30C830C144BF0C
:1001800004680C607047000000230024002500264E
:10019000103A28BF78C1FBD8520728BF30C148BFEA
:1001A0000B6070471FB51FBD10B510BD02F0D9FA26
:1001B0001146FFF7F7FF01F001F902F0F7FA03B477
:1001C000FFF7F2FF03BC02F023FA0000EFF3108008
:1001D00072B6704780F3108870471E4C1E4D256024
:1001E0004FF0000484F309881C4C4FF00105257082
:1001F0001B4C4FF08055256062B6FEE730B4184CBA
:100200004FF08055256030BC704730B4144C4FF02F
:100210008055256030BC704700BF72B6EFF309808F
:1002200028B1203880E8F00F0E49096808600D48B1
:100230000D490A68026000B50C4880475DF804EB80
:10024000106890E8F00F203080F309884EF0040E1B
:1002500062B6704720ED00E00000FFFF14000020B0
:1002600004ED00E01C00002020000020F70C000836
:100270000948804709480047FEE7FEE7FEE7FEE73A
:10028000FEE7FEE7FEE7FEE7FEE7FEE70448054976
:10029000054A064B70470000A5030008310100081D
:1002A00010B3002010BD002010B5002010B50020B4
:1002B000704700BFFEE700BFFEE700BFFEE700BFDC
:1002C000FEE77047704700000CB5002001900090D9
:1002D0006B48006840F480306949086000BF684896
:1002E000006800F4003000900198401C01900098D4
:1002F00018B90198B0F5A06FF1D16148006810F409
:10030000003F02D00120009001E000200090009802
:10031000012842D15B48006840F01000594908604C
:100320000846006820F0030008600846006840F0B6
:1003300002000860524840685149486008464068D9
:1003400048600846406840F480604860084640685D
:1003500020F47C1048600846406840F4E81048608B
:100360000846006840F08070086000BF444800689C
:1003700010F0007FFAD04248406820F00300404966
:1003800048600846406840F00200486000BF3C48B2
:10039000406800F00C000828F9D10CBD10B5FFF73B
:1003A00093FF10BD10B53648006840F00100344995
:1003B00008600846406834490840314948600846AA
:1003C0000068324908402E4908600846006820F459
:1003D000802008600846406820F4FE0048604FF422
:1003E0001F008860FFF7DAFF4FF0006028490860BF
:1003F00010BD10B5002100200022214B5B6803F0E6
:100400000C0121B1042906D0082928D107E0214B8D
:10041000214C236027E01F4B1F4C236023E0184B27
:100420005B6803F47010164B5B6803F480320223A0
:1004300003EB904022B9194B4343174C23600DE066
:100440000F4B5B6813F4003F04D0144B4343124C32
:10045000236003E00F4B43430F4C236003E00D4B3D
:100460000D4C236000BF00BF054B5B68C3F3031353
:100470000B4CE15C084B1B68CB40074C236010BD64
:1004800000100240002002400000FFF8FFFFF6FECF
:1004900008ED00E000127A000000002000093D0095
:1004A000040000202DE9F0474FF000085E4890F866
:1004B00000905E48007808B9BDE8F087FFF786FE37
:1004C00080465B480068401C5949086059480568E7
:1004D00005B911E00DE02F460121284600F009F989
:1004E00000F01EF9AD6901225249384600F056F974
:1004F00000BF002DEFD100BF4F48056805B911E0DE
:100500000DE02F460021284600F0F3F800F008F92E
:10051000AD6901224849384600F040F900BF002D7E
:10052000EFD100BF4548067820E0454850F8264006
:1005300018E0E06A40B1E06A401EE062E06A80B91B
:10054000002084F824000CE0E06A50B994F82400FC
:1005500038B90021204600F0CCF800F0E1F800F0B6
:10056000CAFB2469002CE4D1701CC6B2082EDCD36F
:100570004046FFF72FFE00BF9EE72C480078012879
:1005800008D130480078FF2804D22E480078401C5B
:100590002C490870704710B500242448007800B931
:1005A00010BDFFF713FE04462648007820B1254809
:1005B0000078401E234908702248007860B922481C
:1005C000007848B900F010FA20480068204909680E
:1005D000884201D0FFF719FE2046FFF7FBFD00BF60
:1005E000DEE710B50024FFF7F1FD0446154800785A
:1005F00030B900F0F9F9072802D11348007818B192
:100600002046FFF7E7FD10BD00F0EEF90F48006847
:100610000F490968884201D0FFF7F0FD2046FFF737
:10062000D9FD00BFEFE700002800002014000020E3
:10063000180000203C00002040000020290000207D
:10064000A400002034000020350000201C00002001
:100650002000002010B504462146002000F0B7FC21
:1006600010BD70B504460D462A462146002000F014
:10067000BFFC70BD10B504462146002000F097FC79
:1006800010BD10B5002000F0DCFB10BD10B500203F
:1006900000F0F2FB10BD000010B502460B4692F8C8
:1006A000344053F8241029B943F824200020D060A6
:1006B000106108E000E0096908690028FBD10A61BF
:1006C000D160106100BF012010BD10B5024692F844
:1006D0003430D06818B9106941F8230002E0D2E93B
:1006E00003402061106910B1D2E90304E0600120E9
:1006F00010BD30B505460C46012C08D13A492846B4
:10070000FFF7E3FF39492846FFF7C6FF07E03749FF
:100710002846FFF7DAFF34492846FFF7BDFF30BD12
:10072000002107E0304850F8210010B1304A117024
:1007300002E0491C0829F5D300BF002107E02B483F
:1007400050F8210010B12B4A117002E0491C082911
:10075000F5D300BF012070470346086810B90B604D
:100760000120704762B902E00868006A0860086802
:10077000006A0028F8D1086803620868D8610BE0B5
:1007800002E0086880690860086880690028F8D17C
:1007900008688361086858610120E2E710B50346E4
:1007A0006AB9D86910B9186A086002E0D3E907404D
:1007B0002062186A80B1D3E90704E0610CE058694F
:1007C00010B99869086002E0D3E90540A061986912
:1007D00010B1D3E90504606100201862D861986106
:1007E0005861012010BD000084000020A4000020FA
:1007F0002800002029000020FA48007850B1F9486C
:100800000078401EC1B2F748017000F58A7050F8B8
:10081000210070470020FCE72DE9F05F05460E46F9
:1008200092469B46DDE90B890A9FEE48FFF7E4FFFD
:10083000044624B94420FFF70DFF044600E007E01A
:1008400014B90320BDE8F09F012084F83C0000BFEC
:10085000E78784F8345000202063E0620120A06222
:10086000002084F8240026602062E061A0616061BD
:10087000DD492046FFF710FFFFF752FF0620E1E7B2
:100880002DE9F0474FF00108D84909884800FFF7E3
:10089000E1FE0646002716B90020BDE8F087D448DF
:1008A0000478D14850F824500DE0CF4850F8245037
:1008B00005E0E88F26F81700781C87B22D69002D17
:1008C000F7D1601CC4B2082CEFD3CA480478CA48D8
:1008D00050F824500DE0C84850F8245005E0E88F47
:1008E00026F81700781C87B22D69002DF7D1601CFF
:1008F000C4B2082CEFD3BD480088874200D025E061
:1009000020E04FF0000AD1460AE036F819004045D1
:1009100002D14FF0010A07E009F101001FFA80F946
:10092000B24800888145F0DB00BFBAF1000F04D166
:100930003046FFF79FFE4046AFE708F101001FFA7F
:1009400080F800BFB8F5803FDBD300BF3046FFF72B
:1009500091FE0020A1E72DE9FE4F0746884691460B
:100960001C464FF0000A0026002C04DA072C02D99E
:100970000020BDE8FE8FFFF729FC824600234A468F
:100980004146384600F0F8F9054625B95046FFF7CC
:1009900021FC0420EDE7FFF773FF064626B9504619
:1009A000FFF718FC0820E4E70020CDE900603B4693
:1009B0000246294602902046FFF72EFF8B4800880A
:1009C000401C8A4908805046FFF704FC8B480068A9
:1009D00090F83400A04205DB89480078012801D155
:1009E000FFF7FFFD3046C4E781480278854801687B
:1009F0008248006890F83400904200DD0BE007E088
:100A000091F8240018B980480160072070470969EF
:100A10000029F5D100BF13E0734850F822100BE015
:100A200091F8240038B975480068814203D07648AF
:100A300001600720EAE709690029F1D1501CC2B220
:100A4000082AE9D30120E1E7014666480078032837
:100A500001D90220704763480078401CC2B2614847
:100A6000027000F58A7040F822100020F2E70021A1
:100A700013E0002201EB01135A48001D00EB830034
:100A800080F83C2001EB01125648001D00EB820269
:100A900000F5887040F82120491C0429E9D304207E
:100AA000504A10700520704710B504460B464E485A
:100AB000834202D14E48017801E04E48017853F854
:100AC00021200CE053F8212005E0D08FA04201D175
:100AD000104610BD1269002AF7D1481CC1B208297E
:100AE000F0D30020F5E770B50646002411E004EBD2
:100AF00004113C48001D00EB8100C08FB04206D1BC
:100B000004EB04113748001D00EB810070BD601C30
:100B1000C4B2042CEBD334493046FFF7C5FF054679
:100B200025B935493046FFF7BFFF05462846EDE7B2
:100B3000014670472DE9F0410446002594F83470D1
:100B40003248007810B10920BDE8F0810CB90920C5
:100B5000FAE7E08F08B90920F6E7FFF737FB05460B
:100B60002B480078401C2A490870244800688442B9
:100B700001D10920E8E794F8240008B91A4800E0F8
:100B80001D48064631462046FFF79FFDFFF7C8FD8A
:100B900094F83C0058B90020E0602061E062E087F2
:100BA000606084F834002060042084F8240094F805
:100BB0003C0018B92046FFF747FF02E02046FFF748
:100BC00059FDFFF711FF1248007820B11048007856
:100BD000401E0F4908702846FFF7FCFAFFF70EFB8E
:100BE00000BFB1E7C40000208400002032000020D4
:100BF0002800002029000020A40000201C00002064
:100C000014000020240000202000002034000020D8
:100C10003500002000BFC16A0029FCD190F82410E3
:100C20000029F8D1704770B504460025FFF7CEFAC9
:100C30000546012084F82400012232492046FFF7AE
:100C40008BFD2846FFF7C6FAFFF7CBFC2E4800685D
:100C5000844202D12046FFF7DDFF70BD70B5044627
:100C60000025FFF7B3FA0546002084F82400E0626F
:100C70002846FFF7AFFAFFF7B4FC70BD0246704795
:100C80002DE9F04105460E4617469846FFF7B4FD9C
:100C9000044624B94420FFF7DDFC044600E007E0E9
:100CA00014B90320BDE8F081012084F83C0000BFA6
:100CB0000120E087072084F83400256000202063AD
:100CC0000120A062002084F82400E06207200F4980
:100CD00008700F48097840F8214007200B49087038
:100CE0000B48C0690B4908600B480088401C0A4942
:100CF00008800620D6E704480068006907490860B4
:100D0000704700003C0000201C000020280000204C
:100D10008400002020000020320000202400002059
:100D200070B5044600251048007800B170BD0F482A
:100D3000007800B1FAE7ACB1FFF748FA05460C4875
:100D40000068C46201200A49096881F82400012270
:100D5000084907480068FFF7FFFC2846FFF73AFA02
:100D6000FFF73FFC00BFE1E7340000203500002022
:100D70001C0000203C00002070B5044610464FF0D7
:100D800080750560051F28462C606FF00106051F61
:100D900028462E604FF01236051F28462E604FF071
:100DA0000336051F28462E604FF00236051F2846E1
:100DB0002E607610051F28462E60051F28462960E4
:100DC0004FF01136051F28462E604FF01036051FD4
:100DD00028462E604FF00936051F28462E604FF03A
:100DE0000836051F28462E604FF00736051F284697
:100DF0002E604FF00636051F28462E604FF0053650
:100E0000051F28462E604FF00436051F28462E6029
:100E100070BD000070B503460C4603E014F8015B9A
:100E200003F8015B1500A2F10102F7D170BD30B5E6
:100E3000034601E003F8011B1400A2F10102F9D1FD
:100E400030BD10B504467B4951F824104A007A4958
:100E500051F824000021FFF7EAFF784951F82420D7
:100E60007549083951F824000021FFF7E0FF0121FE
:100E700071480830015510BD10B50146002300220D
:100E800007E06D4850F8210030F8120000B15B1CFB
:100E9000521C684850F821009042F2D86420584310
:100EA000644C54F82140B0FBF4F0C0B210BD2DE901
:100EB000F04704460F460025A9465F480830005D0C
:100EC00020B95D4810380168204688471FB94FF0A7
:100ED000FF30BDE8F0875A4850F82400B7FBF0F027
:100EE00086B2574850F82400B7FBF0F100FB1170B0
:100EF00008B1701C86B24F4850F82400451E22E00D
:100F00004D4850F8240030F8150020B909F10100CF
:100F10001FFA80F901E04FF00009B14512D14FF0FE
:100F2000000808E0444850F8240005EB080120F8C8
:100F3000116008F10108B045F4D3414850F824008D
:100F40006843C6E76D1E002DDADA4FF0FF30C0E7C8
:100F50002DE9F04104460E4637480830005D38B9A7
:100F6000354810380168204688470120BDE8F081E7
:100F7000324850F82400B04217D9314850F82400C4
:100F8000B6FBF0F12C4850F8240030F81120002571
:100F900007E00023284850F824004F1920F81730A4
:100FA0006D1C9542F5DB0020E0E70220DEE770B51E
:100FB00005460C4604B970BD1F48083850F8250096
:100FC000261A31462846FFF7C3FF00BFF3E770B586
:100FD00004460E4631462046FFF769FF0546681C69
:100FE00000D170BD1448083850F824002844F8E7B0
:100FF0002DE9F04104460F46164631462046FFF7DC
:1010000056FF0546681C01D1BDE8F0810A49083940
:1010100051F82410481932463946FFF7FBFE39468D
:101020002046FFF7C4FF0448083850F8240028443D
:10103000EAE70000C027000858000020D027000879
:10104000C827000800B597B0012140F2E11001F077
:101050004DF80121080201F03CF84FF63370ADF86D
:10106000000018208DF8030003208DF80200694667
:10107000364800F085FD4FF68370ADF800006946F4
:10108000334800F07DFD4FF23F00ADF800006946A7
:10109000304800F075FD40F23F40ADF80000694671
:1010A0002D4800F06DFD0020019002900320039078
:1010B00000200490059006900790042008900020DE
:1010C00009900A9010200B9000200C900E900D902B
:1010D0000F9010904FF480501190002012901390B8
:1010E000149001A81590169008A800F02CFA012180
:1010F000042000F089FB17B000BD10B506E00478AD
:101100004FF0D0435C54891C401C521E002AF6D17B
:1011100010BD06E04FF0D0435B5C00F8013B891C3A
:10112000521E002AF6D1704713B50C460122214603
:101130006846FFF7E2FF1CBD18B5044601222146B0
:101140006846FFF7E6FF9DF8000018BD0014014057
:1011500000180140001C01400020014010B5FFF7BD
:101160000CFAFFF79FF9FFF716FA10BD10B56FF0F4
:10117000040000F07BF9374800683749B0FBF1F014
:1011800036490870334800683349B0FBF1F44FF436
:10119000FA6044430220324908804FF0E0200069A1
:1011A00040F002004FF0E021086108464461006908
:1011B00040F00100086110BD70B5034600224FF0F9
:1011C000E0267569254E367803FB06F400BF4FF024
:1011D000E026B16910E04FF0E026B06988420BD0FC
:1011E000884202D20E1A324402E02E1A0E443244D1
:1011F0000146A24200D300E0EDE700BF70BD70B52C
:1012000004461848007801281CD1154800888442FB
:1012100006DB1348008894FBF0F52846FFF780FDB5
:101220000F48008894FBF0F100FB114084B22CB110
:101230004FF47A7104FB01F0FFF7BEFF0A48006823
:10124000FFF7E8FC4FF47A7104FB01F0FFF7B4FFFD
:1012500070BD00000000002000127A006400002031
:1012600066000020140000201C00002010B54FF480
:10127000A06000F0ABF810BD00BF00BF0025601CEF
:10128000C4B20A20FFF7BBFF082C02D1012040495D
:101290000860642C03D1002400203D490860EDE77C
:1012A00000BF0025601CC4B26420FFF7A8FF082C13
:1012B00002D1012036490860642C03D100240020AB
:1012C00033490860EDE70024FEF780FF044606235B
:1012D000304A0021AFF25F00FFF73DFB05232E4AA5
:1012E0000021AFF24300FFF736FB2046FEF772FF06
:1012F00000BFFEE7002029490870294908802949D4
:101300000870294908702949086007202849087091
:1013100028490870704770B50025FEF757FF05464D
:101320000023254A1946AFF26100FFF725FD044668
:101330001CB92846FEF74EFF70BD00231A46194619
:101340002046FFF79DFC2846FEF744FF00BFF3E769
:1013500010B5FFF70BFFFFF789FF4FF4165001F0B0
:1013600065F901F02FF9FFF76DFE0020FFF769FD29
:101370000120FFF766FD002010BD10B5FFF777FBD9
:10138000FFF7B8FFFFF7C7FFFEF727FF10BD00000C
:1013900094812142E4AF0020E4B100201400002039
:1013A000320000203400002035000020180000200A
:1013B0002900002028000020E4AD002010B5FFF730
:1013C000C7FFFFF7DAFF002010BD000031490143DD
:1013D000314A1160704770B5002100230F22C47894
:1013E0000CB32D4C246804F4E064C4F5E064210AD5
:1013F000C1F10403CA40447804FA03F1847814402C
:1014000021430901254C0678A155047804F01F05F5
:101410000124AC4005786D114FF0E02606EB850500
:10142000C5F8004109E0047804F01F050124AC4030
:101430001B4D0678761145F8264070BD194A0A40C2
:101440000243154B1B1F1A60704739B1124A121D17
:1014500012680243104B1B1D1A6006E00E4A121D53
:10146000126882430C4B1B1D1A607047042808D178
:101470004FF0E021096941F004014FF0E0221161D1
:1014800007E04FF0E021096921F004014FF0E0226C
:10149000116170470000FA050CED00E000E400E087
:1014A00080E100E080FFFF1F30B943F2DB014FF025
:1014B000204242F8201005E043F2D2014FF02042D2
:1014C00042F820106FF07042411C4FF0204343F867
:1014D000212011461A4602EB8002C2F8041170471F
:1014E00010280AD118214FF0204211664021516680
:1014F0004FF0FC319166D16610E01821F84A116076
:101500004FF040014FF02042C2F884104FF0FC3100
:10151000F44A11604FF02042C2F88C107047182036
:10152000F14908604FF000004FF02041C1F8A400DD
:101530004FF0FC30ED49086001F10401086001F151
:10154000040108607047D0E901121143C2681143D9
:10155000026911434269114382691143C26911430F
:10156000026A1143426A1143826A1143C26A1143FB
:10157000026B11434FF02043026843F82210816848
:10158000082908D11A46016852F8211041F040019B
:10159000026843F82210416B0968426B526841EAC5
:1015A0000211426B926841EA0221426B928941EA40
:1015B0000241426B128A41EA0251426B127D41EABA
:1015C0000261426B926911430268521C4FF0204342
:1015D00043F82210C16AB1F5804F1AD1816B0968B6
:1015E000826B526841EA0211826B926841EA0221E1
:1015F000826B128A41EA0251826B127D41EA0261DA
:10160000826B92691143026803EB8202C2F80411F3
:1016100008E06FF070414FF02043026803EB820254
:10162000C2F80411704730B500210022002344683D
:1016300044F0080485682C43C5682C4305692C4395
:10164000456944EA4524856944EA4531C46924680A
:10165000C5696D6844EA0524C5692D8944EA0544D5
:10166000C5692D7B44EA0562046A2468056A6D68D1
:1016700044EA0524056A2D8944EA0544056A2D7B60
:1016800044EA05630468102C05D14FF0204421661C
:10169000A266E36607E0924C21604FF02044C4F854
:1016A0008820934C236030BD016841F010014268EE
:1016B00041EA4221826841EA42318B4A1160C168A5
:1016C0000968C268526841EA0221C268128941EA87
:1016D0000241C268127B41EA0261844A11600169D9
:1016E00009680269526841EA02210269128941EAE5
:1016F00002410269127B41EA02617E4A116041693E
:1017000009684269526841EA02214269128941EA44
:1017100002414269127B41EA02614FF02042C2F865
:10172000B0107047002101600221416000218160FA
:10173000C160016141618161C16101624FF4805109
:101740004162490081620021C16201630F21426B45
:101750001160426B5160FF21426B91600F21426B1F
:10176000D160426B1161426B51610021426B91610A
:101770000F21826B1160826B5160FF21826B91603F
:101780000F21826BD160826B1161826B51610021EC
:10179000826B91617047102101600021416081607E
:1017A000C160016141618161FC21C2691160C2694E
:1017B0005160C2699160C269D160026A1160026AB7
:1017C0005160026A9160026AD16070470021016035
:1017D00041608160FC21C2681160C2685160C268CA
:1017E0009160C268D160026911600269516002694A
:1017F00091600269D1604269116042695160426939
:1018000091604269D160704751B14FF0204252F867
:10181000202042F001024FF0204343F8202009E04D
:101820004FF0204252F82020334B1A404FF0204313
:1018300043F82020704799B1102808D14FF020427A
:10184000126E42F004024FF020431A661DE0244A53
:10185000126842F004024FF02043C3F8802014E0E5
:10186000102809D14FF02042126E234BDB1E1A4084
:101870004FF020431A6608E0194A12681F4B02EA2B
:1018800003024FF02043C3F88020704740B116494F
:10189000096841F004014FF02042C2F8A01008E0AE
:1018A00011490968154A01EA02014FF02042C2F8C5
:1018B000A010704799B1102808D14FF02042126E45
:1018C00042F040024FF020431A662DE0044A1268AD
:1018D00042F040024FF02043C3F8802024E00FE0A4
:1018E000800000A0880000A0A00000A0A80000A028
:1018F0008C0000A0AC0000A0FEFF0F00FBFF0F005B
:10190000102808D14FF02042126E684B1A404FF059
:1019100020431A6608E0664A1268644B02EA030232
:101920004FF02043C3F88020704701460020102963
:1019300003D14FF02042506F01E05E4A10687047BB
:1019400010B5F2B1102807D14FF020435B6E0B4366
:101950004FF02044636632E0B0F5807F08D1564BEB
:101960001B6843EA01034FF02044C4F8843026E0AA
:10197000524B1B6843EA01034FF02044C4F8A430E3
:101980001DE0102807D14FF020435B6E8B434FF0D2
:101990002044636613E0B0F5807F08D1464B1B6896
:1019A00023EA01034FF02044C4F8843007E0434B9E
:1019B0001B6823EA01034FF02044C4F8A43010BD93
:1019C00010B5024600200023102A03D14FF0204416
:1019D000636E07E0B2F5807F02D1374C236801E0E7
:1019E000364C23680B4201D0012000E0002010BDDE
:1019F000102807D14FF02042526E8A434FF0204307
:101A00005A6613E0B0F5807F08D12B4A126822EAAB
:101A100001024FF02043C3F8842007E0274A1268F0
:101A200022EA01024FF02043C3F8A420704770B5AA
:101A300002460020002300240025102A03D14FF085
:101A40002046736E07E0B2F5807F02D11A4E3368EC
:101A500001E01A4E336803EA010403EAD10514B128
:101A60000DB1012000E0002070BD102808D14FF01A
:101A70002042526E22EAD1024FF020435A6613E010
:101A8000B0F5807F08D10C4A126822EAD1024FF0EB
:101A90002043C3F8842007E0084A126822EAD102F2
:101AA0004FF02043C3F8A42070470000BFFF0F0091
:101AB000800000A0940000A0840000A0A40000A06A
:101AC00010B50446CA48844208D10121042000F020
:101AD00027FB0021042000F023FB46E0C548844298
:101AE00008D10121082000F01BFB0021082000F094
:101AF00017FB3AE0C048844208D10121102000F0D1
:101B00000FFB0021102000F00BFB2EE0BB488442AD
:101B100008D10121202000F003FB0021202000F04B
:101B2000FFFA22E0B648844208D10121402000F0AB
:101B3000F7FA0021402000F0F3FA16E0B1488442A1
:101B400008D10121802000F0EBFA0021802000F074
:101B5000E7FA0AE0AC48844207D10121801500F081
:101B6000DFFA0021A01500F0DBFA10BD10B501214D
:101B7000084600F0D5FA0021012000F0D1FA10BD8E
:101B80002DE9F04102460025002600200023002414
:101B9000002791F803C00CF00F0591F803C01CF06A
:101BA000100F03D091F802C04CEA050591F800C06F
:101BB000BCF1000F31D0146800202BE04FF0010C75
:101BC0000CFA00F3B1F800C00CEA03069E4220D1E3
:101BD00083004FF00F0C0CFA03F7BC4305FA03FC2B
:101BE0004CEA040491F803C0BCF1280F06D14FF071
:101BF000010C0CFA00FCC2F814C00AE091F803C012
:101C0000BCF1480F05D14FF0010C0CFA00FCC2F8F2
:101C100010C0401C0828D1D31460B1F800C0BCF13A
:101C2000FF0F34DD546800202EE000F1080C4FF067
:101C3000010808FA0CF3B1F800C00CEA03069E4252
:101C400021D183004FF00F0C0CFA03F7BC4305FAC7
:101C500003FC4CEA040491F803C0BCF1280F05D141
:101C600000F1080C08FA0CF8C2F8148091F803C0CF
:101C7000BCF1480F07D100F1080C4FF0010808FA39
:101C80000CF8C2F81080401C0828CED35460BDE880
:101C9000F0814FF6FF710180022181700421C17033
:101CA00070470246002093680B4201D0012000E0FB
:101CB000002070470146886880B2704702460020C5
:101CC000D3680B4201D0012000E00020704701469C
:101CD000C86880B2704701617047416170470AB1BE
:101CE000016100E041617047C16070474FF480328C
:101CF0000A4382618161826182698269704702461A
:101D00000020424B18684FF68073184040EA0210DA
:101D100008433E4B186070473D49C8617047F0B5B5
:101D20000A46002300240021002500F00046B6F1F9
:101D3000004F02D1354EF16901E0344E7168C0F3B5
:101D4000034583B200F44016B6F5401F08D121F0D8
:101D500070612E4E766826F070662C4F7E6012E021
:101D600000F48016B6F5801F06D1032606FA05F4A6
:101D7000A14341F0706106E0460D360103FA06F614
:101D8000B14341F0706122B1460D360103FA06F607
:101D9000314300F00046B6F1004F02D11B4EF16115
:101DA00001E01A4E7160F0BD30B500228B071C0FA8
:101DB0000F2303FA04F2154B08338C1053F8243028
:101DC0009343124C08348D1044F8253023468C1070
:101DD00053F824308C07240F00FA04F423430B4CEF
:101DE00008348D1044F8253030BD0A49086070472A
:101DF00000080140000C01400010014000140140A7
:101E000000180140001C014000200140000001407A
:101E100000002042DC002042DD48006840F0010064
:101E2000DB49086008464068DA490840D8494860FC
:101E300008460068D8490840D54908600846006847
:101E400020F4802008600846406820F4FE004860C6
:101E50004FF41F0088607047CD49096821F4803134
:101E6000CB4A11601146096821F480211160B0F558
:101E7000803F03D0B0F5802F0ED106E0C449096839
:101E800041F48031C24A116007E0C149096841F458
:101E9000A021BF4A116000E000BF00BF704710B52D
:101EA00001460022002300204A11012A02D1B84C29
:101EB000236806E0022A02D1B54C236A01E0B44C43
:101EC000636A01F01F02012494401C4201D00120EA
:101ED00000E0002010BD38B500200090002400254F
:101EE00000BF3120FFF7DBFF05460098401C009043
:101EF0000098B0F5A06F01D0002DF2D03120FFF78F
:101F0000CEFF08B1012400E00024204638BD014680
:101F100000209F4A106820F0F80040EAC1001060DD
:101F200070479E490860704702460020984B5868E9
:101F300020F47C1042EA01031843954B5860704727
:101F400096490866704701460020914A506820F083
:101F500003000843506070478D48406800F00C0053
:101F60007047014600208A4A506820F0F00008437C
:101F70005060704701460020854A506820F4E060B8
:101F800008435060704701460020814A506820F4A1
:101F9000605040EAC1005060704729B17C4A527AD3
:101FA00002437B4B5A7204E0794A527A8243784B5F
:101FB0005A7270477A490860704701460020744A97
:101FC000506820F440400843506070470021754A33
:101FD00011706F4A82F82010012802D0042808D11D
:101FE00003E001216F4A117004E005216D4A117070
:101FF00000E000BF00BF70476B490860704764494C
:10200000096A0143624A11627047674944390860AE
:10201000704730B500210022002400235C4D6D681C
:1020200005F00C0121B1042905D0082923D105E0D0
:102030005E4D056022E05D4D05601FE0544D6D680A
:1020400005F47012524D6D6805F48034022505EBDD
:1020500092421CB9564D554305600BE04C4D6D68DE
:1020600015F4003F03D0524D5543056002E04F4D3B
:102070005543056002E04D4D056000BF00BF444D73
:102080006D6805F0F00109094A4D6B5C0568DD409B
:1020900045603F4D6D6805F4E061090A454D6B5C94
:1020A0004568DD4085603A4D6D6805F46051C90AA8
:1020B000404D6B5C4568DD40C560354D6D6805F48D
:1020C0004041890B3C4D6B5CC568B5FBF3F5056180
:1020D00030BD29B12E4A526902432D4B5A6104E0AA
:1020E0002B4A526982432A4B5A61704729B1284AC8
:1020F00092690243264B9A6104E0254A9269824321
:10210000234B9A61704729B1214AD2690243204B7F
:10211000DA6104E01E4AD26982431D4BDA617047DE
:1021200029B11B4AD2680243194BDA6004E0184A0D
:10213000D2688243164BDA60704729B1144A12699B
:102140000243134B1A6104E0114A12698243104B97
:102150001A61704714494039086070470F49C864D4
:1021600070470B49C87170470948406A40F0807059
:1021700007494862704701460020054A92680A42B2
:1021800001D0012000E000207047014988727047AB
:10219000001002400000FFF8FFFFF6FE0000424280
:1021A000D8004242201002408004424200127A00CD
:1021B00000093D00680000207800002010B50446AA
:1021C000FB48844209D101218803FFF7A9FF0021C0
:1021D0004FF48040FFF7A4FF32E0F648844209D173
:1021E00001214804FFF7A9FF00214FF40030FFF759
:1021F000A4FF25E0F048844209D101218804FFF7BB
:102200009CFF00214FF48020FFF797FF18E0EB4878
:10221000844209D10121C804FFF78FFF00214FF448
:102220000020FFF78AFF0BE0E548844208D1012136
:102230000805FFF782FF00214FF48010FFF77DFFB4
:1022400010BD2DE9F04786B005460E460024A24693
:1022500000BFA1460027B08900B100BF2F462C8ADD
:102260004CF6FF700440F08804432C82AC894EF693
:10227000F3100440B088318908437189084304434E
:10228000AC81AC8A4FF6FF400440B0890443AC8275
:1022900001A8FFF7BEFEC648874202D1DDF810A0B4
:1022A00001E0DDF80CA0A88910F4004F08D00AEB7B
:1022B000CA0000EB0A1031684900B0FBF1F807E0F2
:1022C0000AEBCA0000EB0A1031688900B0FBF1F894
:1022D0006420B8FBF0F004012009642101FB10899F
:1022E000A88910F4004F08D0322000EBC900B0FBE1
:1022F000F1F000F00700044308E0322000EB091081
:102300006421B0FBF1F000F00F0004432C8106B013
:10231000BDE8F0874FF41651016000218180C18033
:1023200001810C21418100218181704710B5024655
:102330000020108A4FF2FF0318400B884C8823437B
:102340008C882343CC8823431843108210BD00217E
:10235000018041808180C180704721B1828942F42F
:102360000052828104E082894DF6FF731A40828117
:102370007047F0B503460024002600250020A1F593
:1023800010676A3F00D100BF1846C1F3421401F044
:102390001F06012707FA06F5012C01D10C3004E0D5
:1023A000022C01D1103000E014301AB107682F431D
:1023B000076002E00768AF430760F0BD1AB1838A87
:1023C0000B43838202E0838A8B4383827047028AB5
:1023D0004FF6F0731A400282028A0A430282704763
:1023E00082894FF2FF731A40828182890A43828177
:1023F000704721B1828942F00202828104E0828921
:102400004FF6FD731A4082817047028A4FF6DF73E0
:102410001A400282028A0A430282704721B1028A6C
:1024200042F48042028204E0028A4BF6FF731A40B3
:1024300002827047C1F30802828070470146888893
:10244000C0F308007047818941F001018181704724
:10245000028BD2B20283028B42EA012202837047CE
:10246000028B02F47F420283028B0A43028370478D
:1024700021B1828A42F02002828204E0828A4FF6F1
:10248000DF731A408282704721B1828A42F01002C3
:10249000828204E0828A4FF6EF731A40828270478C
:1024A00021B1828A42F00802828204E0828A4FF6D9
:1024B000F7731A408282704721B1828942F4004248
:1024C000828103E08289C2F30E028281704721B1CA
:1024D000828A42F40062828204E0828A4FF2FF73B1
:1024E0001A4082827047828A4FF6FB731A408282BA
:1024F000828A0A438282704721B1828A42F00202B4
:10250000828204E0828A4FF6FD731A40828270470D
:1025100002460020B1F5007F00D100BF13880B42B6
:1025200001D0012000E00020704701F40072B2F5F4
:10253000007F00D100BFCA430280704770B50246D9
:102540000024002300250020A1F510666A3E00D17A
:1025500000BFC1F3421501F01F03012606FA03F381
:10256000012D02D19689334006E0022D02D1168A50
:10257000334001E0968A33400C12012606FA04F437
:102580001688344013B10CB1012000E0002070BD6A
:1025900010B500220023A1F510646A3C00D100BFF1
:1025A0000A1201249440A3B2DC43048010BD000051
:1025B000003801400044004000480040004C00400A
:1025C0000050004008B501214820FFF78FFD202072
:1025D000ADF8000010208DF8030003208DF80200F4
:1025E00069460948FFF7CCFA20210748FFF773FB3B
:1025F0002020ADF8000069460448FFF7C1FA202109
:102600000248FFF768FB08BD000C014000180140BC
:10261000014600BF704700BF4B4A128812F0400FBE
:10262000FAD0C2B2484B1B1D1A80704710B586B055
:102630000446012144F20500FFF758FD4FF40070F5
:10264000ADF8140003208DF8160018208DF817003F
:1026500005A93E48FFF794FA4FF48060ADF81400E6
:1026600004208DF8170005A93848FFF789FA2520BE
:102670008DF8000003208DF801008DF80200012084
:102680008DF803006846FEF7A6FE01940020ADF821
:102690000800ADF80A00ADF80C00ADF810000C20F1
:1026A000ADF80E0001A92848FFF7CBFD012240F24A
:1026B00025512548FFF75DFE01212348FFF74DFE18
:1026C00006B010BD10B5FDF758FF40F225511E4869
:1026D000FFF734FF10B31C48FFF7B0FEC4B21C482C
:1026E000008810F4004F2BD11948008810F4804F57
:1026F0000CD00A2C03D000201549088020E0144893
:10270000008840F400401249088019E00D2C06D1E1
:102710000F48008840F480400D49088010E00C48C4
:102720000088C0F30D000B490C5409480088401C78
:102730000749088008460088C72801DD0020088076
:10274000FDF729FF10BD00000038014000080140DE
:102750007C000020E8B10020704770477047704748
:102760007047754600F028F8AE46050069465346A6
:1027700020F00700854618B020B5FDF787FDBDE8BD
:1027800020404FF000064FF000074FF000084FF0D8
:10279000000B21F00701AC46ACE8C009ACE8C00969
:1027A000ACE8C009ACE8C0098D4670470446AFF3F9
:1027B00000802046FDF703FD00487047B0B20020BE
:1027C00000050000001800002000000020000000AC
:1027D00000A0000000000300F8270008000000200F
:1027E000840000006C0100087C28000884000020A0
:1027F0008CBC00008801000800A24A040000000010
:1028000000000000010203040607080900000000A0
:1028100000000000000000000000000000000000B8
:1028200000000000000000000000000000000000A8
:102830000000000000000000000000000000000098
:10284000430E0008790E0008E8010020000000682F
:10285000E8A1002000000368000000000000000064
:102860000000000001020304010203040607080936
:0C28700002040608000000000000000048
:0400000508000131BD
:00000001FF
